{
  "_format": "hh-sol-artifact-1",
  "contractName": "PangoulToken",
  "sourceName": "contracts/PangoulToken.sol",
  "abi": [
    {
      "inputs": [
        {
          "internalType": "uint256",
          "name": "initialSupply",
          "type": "uint256"
        }
      ],
      "stateMutability": "nonpayable",
      "type": "constructor"
    },
    {
      "inputs": [],
      "name": "AccessControlBadConfirmation",
      "type": "error"
    },
    {
      "inputs": [
        {
          "internalType": "address",
          "name": "account",
          "type": "address"
        },
        {
          "internalType": "bytes32",
          "name": "neededRole",
          "type": "bytes32"
        }
      ],
      "name": "AccessControlUnauthorizedAccount",
      "type": "error"
    },
    {
      "inputs": [
        {
          "internalType": "address",
          "name": "spender",
          "type": "address"
        },
        {
          "internalType": "uint256",
          "name": "allowance",
          "type": "uint256"
        },
        {
          "internalType": "uint256",
          "name": "needed",
          "type": "uint256"
        }
      ],
      "name": "ERC20InsufficientAllowance",
      "type": "error"
    },
    {
      "inputs": [
        {
          "internalType": "address",
          "name": "sender",
          "type": "address"
        },
        {
          "internalType": "uint256",
          "name": "balance",
          "type": "uint256"
        },
        {
          "internalType": "uint256",
          "name": "needed",
          "type": "uint256"
        }
      ],
      "name": "ERC20InsufficientBalance",
      "type": "error"
    },
    {
      "inputs": [
        {
          "internalType": "address",
          "name": "approver",
          "type": "address"
        }
      ],
      "name": "ERC20InvalidApprover",
      "type": "error"
    },
    {
      "inputs": [
        {
          "internalType": "address",
          "name": "receiver",
          "type": "address"
        }
      ],
      "name": "ERC20InvalidReceiver",
      "type": "error"
    },
    {
      "inputs": [
        {
          "internalType": "address",
          "name": "sender",
          "type": "address"
        }
      ],
      "name": "ERC20InvalidSender",
      "type": "error"
    },
    {
      "inputs": [
        {
          "internalType": "address",
          "name": "spender",
          "type": "address"
        }
      ],
      "name": "ERC20InvalidSpender",
      "type": "error"
    },
    {
      "anonymous": false,
      "inputs": [
        {
          "indexed": true,
          "internalType": "address",
          "name": "owner",
          "type": "address"
        },
        {
          "indexed": true,
          "internalType": "address",
          "name": "spender",
          "type": "address"
        },
        {
          "indexed": false,
          "internalType": "uint256",
          "name": "value",
          "type": "uint256"
        }
      ],
      "name": "Approval",
      "type": "event"
    },
    {
      "anonymous": false,
      "inputs": [
        {
          "indexed": true,
          "internalType": "bytes32",
          "name": "role",
          "type": "bytes32"
        },
        {
          "indexed": true,
          "internalType": "bytes32",
          "name": "previousAdminRole",
          "type": "bytes32"
        },
        {
          "indexed": true,
          "internalType": "bytes32",
          "name": "newAdminRole",
          "type": "bytes32"
        }
      ],
      "name": "RoleAdminChanged",
      "type": "event"
    },
    {
      "anonymous": false,
      "inputs": [
        {
          "indexed": true,
          "internalType": "bytes32",
          "name": "role",
          "type": "bytes32"
        },
        {
          "indexed": true,
          "internalType": "address",
          "name": "account",
          "type": "address"
        },
        {
          "indexed": true,
          "internalType": "address",
          "name": "sender",
          "type": "address"
        }
      ],
      "name": "RoleGranted",
      "type": "event"
    },
    {
      "anonymous": false,
      "inputs": [
        {
          "indexed": true,
          "internalType": "bytes32",
          "name": "role",
          "type": "bytes32"
        },
        {
          "indexed": true,
          "internalType": "address",
          "name": "account",
          "type": "address"
        },
        {
          "indexed": true,
          "internalType": "address",
          "name": "sender",
          "type": "address"
        }
      ],
      "name": "RoleRevoked",
      "type": "event"
    },
    {
      "anonymous": false,
      "inputs": [
        {
          "indexed": true,
          "internalType": "address",
          "name": "from",
          "type": "address"
        },
        {
          "indexed": true,
          "internalType": "address",
          "name": "to",
          "type": "address"
        },
        {
          "indexed": false,
          "internalType": "uint256",
          "name": "value",
          "type": "uint256"
        }
      ],
      "name": "Transfer",
      "type": "event"
    },
    {
      "inputs": [],
      "name": "DEFAULT_ADMIN_ROLE",
      "outputs": [
        {
          "internalType": "bytes32",
          "name": "",
          "type": "bytes32"
        }
      ],
      "stateMutability": "view",
      "type": "function"
    },
    {
      "inputs": [],
      "name": "MINTER_ROLE",
      "outputs": [
        {
          "internalType": "bytes32",
          "name": "",
          "type": "bytes32"
        }
      ],
      "stateMutability": "view",
      "type": "function"
    },
    {
      "inputs": [
        {
          "internalType": "address",
          "name": "owner",
          "type": "address"
        },
        {
          "internalType": "address",
          "name": "spender",
          "type": "address"
        }
      ],
      "name": "allowance",
      "outputs": [
        {
          "internalType": "uint256",
          "name": "",
          "type": "uint256"
        }
      ],
      "stateMutability": "view",
      "type": "function"
    },
    {
      "inputs": [
        {
          "internalType": "address",
          "name": "spender",
          "type": "address"
        },
        {
          "internalType": "uint256",
          "name": "value",
          "type": "uint256"
        }
      ],
      "name": "approve",
      "outputs": [
        {
          "internalType": "bool",
          "name": "",
          "type": "bool"
        }
      ],
      "stateMutability": "nonpayable",
      "type": "function"
    },
    {
      "inputs": [
        {
          "internalType": "address",
          "name": "account",
          "type": "address"
        }
      ],
      "name": "balanceOf",
      "outputs": [
        {
          "internalType": "uint256",
          "name": "",
          "type": "uint256"
        }
      ],
      "stateMutability": "view",
      "type": "function"
    },
    {
      "inputs": [],
      "name": "decimals",
      "outputs": [
        {
          "internalType": "uint8",
          "name": "",
          "type": "uint8"
        }
      ],
      "stateMutability": "view",
      "type": "function"
    },
    {
      "inputs": [
        {
          "internalType": "bytes32",
          "name": "role",
          "type": "bytes32"
        }
      ],
      "name": "getRoleAdmin",
      "outputs": [
        {
          "internalType": "bytes32",
          "name": "",
          "type": "bytes32"
        }
      ],
      "stateMutability": "view",
      "type": "function"
    },
    {
      "inputs": [
        {
          "internalType": "bytes32",
          "name": "role",
          "type": "bytes32"
        },
        {
          "internalType": "address",
          "name": "account",
          "type": "address"
        }
      ],
      "name": "grantRole",
      "outputs": [],
      "stateMutability": "nonpayable",
      "type": "function"
    },
    {
      "inputs": [
        {
          "internalType": "bytes32",
          "name": "role",
          "type": "bytes32"
        },
        {
          "internalType": "address",
          "name": "account",
          "type": "address"
        }
      ],
      "name": "hasRole",
      "outputs": [
        {
          "internalType": "bool",
          "name": "",
          "type": "bool"
        }
      ],
      "stateMutability": "view",
      "type": "function"
    },
    {
      "inputs": [
        {
          "internalType": "address",
          "name": "to",
          "type": "address"
        },
        {
          "internalType": "uint256",
          "name": "amount",
          "type": "uint256"
        }
      ],
      "name": "mint",
      "outputs": [],
      "stateMutability": "nonpayable",
      "type": "function"
    },
    {
      "inputs": [],
      "name": "name",
      "outputs": [
        {
          "internalType": "string",
          "name": "",
          "type": "string"
        }
      ],
      "stateMutability": "view",
      "type": "function"
    },
    {
      "inputs": [
        {
          "internalType": "bytes32",
          "name": "role",
          "type": "bytes32"
        },
        {
          "internalType": "address",
          "name": "callerConfirmation",
          "type": "address"
        }
      ],
      "name": "renounceRole",
      "outputs": [],
      "stateMutability": "nonpayable",
      "type": "function"
    },
    {
      "inputs": [
        {
          "internalType": "bytes32",
          "name": "role",
          "type": "bytes32"
        },
        {
          "internalType": "address",
          "name": "account",
          "type": "address"
        }
      ],
      "name": "revokeRole",
      "outputs": [],
      "stateMutability": "nonpayable",
      "type": "function"
    },
    {
      "inputs": [
        {
          "internalType": "bytes4",
          "name": "interfaceId",
          "type": "bytes4"
        }
      ],
      "name": "supportsInterface",
      "outputs": [
        {
          "internalType": "bool",
          "name": "",
          "type": "bool"
        }
      ],
      "stateMutability": "view",
      "type": "function"
    },
    {
      "inputs": [],
      "name": "symbol",
      "outputs": [
        {
          "internalType": "string",
          "name": "",
          "type": "string"
        }
      ],
      "stateMutability": "view",
      "type": "function"
    },
    {
      "inputs": [],
      "name": "totalSupply",
      "outputs": [
        {
          "internalType": "uint256",
          "name": "",
          "type": "uint256"
        }
      ],
      "stateMutability": "view",
      "type": "function"
    },
    {
      "inputs": [
        {
          "internalType": "address",
          "name": "to",
          "type": "address"
        },
        {
          "internalType": "uint256",
          "name": "value",
          "type": "uint256"
        }
      ],
      "name": "transfer",
      "outputs": [
        {
          "internalType": "bool",
          "name": "",
          "type": "bool"
        }
      ],
      "stateMutability": "nonpayable",
      "type": "function"
    },
    {
      "inputs": [
        {
          "internalType": "address",
          "name": "from",
          "type": "address"
        },
        {
          "internalType": "address",
          "name": "to",
          "type": "address"
        },
        {
          "internalType": "uint256",
          "name": "value",
          "type": "uint256"
        }
      ],
      "name": "transferFrom",
      "outputs": [
        {
          "internalType": "bool",
          "name": "",
          "type": "bool"
        }
      ],
      "stateMutability": "nonpayable",
      "type": "function"
    }
  ],
  "bytecode": "0x60806040523480156200001157600080fd5b506040516200238c3803806200238c8339818101604052810190620000379190620005d2565b6040518060400160405280600781526020017f50616e676f756c000000000000000000000000000000000000000000000000008152506040518060400160405280600481526020017f50414e47000000000000000000000000000000000000000000000000000000008152508160039081620000b4919062000874565b508060049081620000c6919062000874565b505050620000de6000801b336200015560201b60201c565b50620001117f9f2df0fed2c77648de5860a4cc508cd0818c85b8b8a1ab4ceeef8d981c8956a6336200015560201b60201c565b506200014e33620001276200025960201b60201c565b600a62000135919062000aeb565b8362000142919062000b3c565b6200026260201b60201c565b5062000c8f565b6000620001698383620002ef60201b60201c565b6200024e5760016005600085815260200190815260200160002060000160008473ffffffffffffffffffffffffffffffffffffffff1673ffffffffffffffffffffffffffffffffffffffff16815260200190815260200160002060006101000a81548160ff021916908315150217905550620001ea6200035a60201b60201c565b73ffffffffffffffffffffffffffffffffffffffff168273ffffffffffffffffffffffffffffffffffffffff16847f2f8788117e7eff1d82e926ec794901d17c78024a50270940304540a733656f0d60405160405180910390a46001905062000253565b600090505b92915050565b60006012905090565b600073ffffffffffffffffffffffffffffffffffffffff168273ffffffffffffffffffffffffffffffffffffffff1603620002d75760006040517fec442f05000000000000000000000000000000000000000000000000000000008152600401620002ce919062000bcc565b60405180910390fd5b620002eb600083836200036260201b60201c565b5050565b60006005600084815260200190815260200160002060000160008373ffffffffffffffffffffffffffffffffffffffff1673ffffffffffffffffffffffffffffffffffffffff16815260200190815260200160002060009054906101000a900460ff16905092915050565b600033905090565b600073ffffffffffffffffffffffffffffffffffffffff168373ffffffffffffffffffffffffffffffffffffffff1603620003b8578060026000828254620003ab919062000be9565b925050819055506200048e565b60008060008573ffffffffffffffffffffffffffffffffffffffff1673ffffffffffffffffffffffffffffffffffffffff1681526020019081526020016000205490508181101562000447578381836040517fe450d38c0000000000000000000000000000000000000000000000000000000081526004016200043e9392919062000c35565b60405180910390fd5b8181036000808673ffffffffffffffffffffffffffffffffffffffff1673ffffffffffffffffffffffffffffffffffffffff16815260200190815260200160002081905550505b600073ffffffffffffffffffffffffffffffffffffffff168273ffffffffffffffffffffffffffffffffffffffff1603620004d9578060026000828254039250508190555062000526565b806000808473ffffffffffffffffffffffffffffffffffffffff1673ffffffffffffffffffffffffffffffffffffffff168152602001908152602001600020600082825401925050819055505b8173ffffffffffffffffffffffffffffffffffffffff168373ffffffffffffffffffffffffffffffffffffffff167fddf252ad1be2c89b69c2b068fc378daa952ba7f163c4a11628f55a4df523b3ef8360405162000585919062000c72565b60405180910390a3505050565b600080fd5b6000819050919050565b620005ac8162000597565b8114620005b857600080fd5b50565b600081519050620005cc81620005a1565b92915050565b600060208284031215620005eb57620005ea62000592565b5b6000620005fb84828501620005bb565b91505092915050565b600081519050919050565b7f4e487b7100000000000000000000000000000000000000000000000000000000600052604160045260246000fd5b7f4e487b7100000000000000000000000000000000000000000000000000000000600052602260045260246000fd5b600060028204905060018216806200068657607f821691505b6020821081036200069c576200069b6200063e565b5b50919050565b60008190508160005260206000209050919050565b60006020601f8301049050919050565b600082821b905092915050565b600060088302620007067fffffffffffffffffffffffffffffffffffffffffffffffffffffffffffffffff82620006c7565b620007128683620006c7565b95508019841693508086168417925050509392505050565b6000819050919050565b6000620007556200074f620007498462000597565b6200072a565b62000597565b9050919050565b6000819050919050565b620007718362000734565b6200078962000780826200075c565b848454620006d4565b825550505050565b600090565b620007a062000791565b620007ad81848462000766565b505050565b5b81811015620007d557620007c960008262000796565b600181019050620007b3565b5050565b601f8211156200082457620007ee81620006a2565b620007f984620006b7565b8101602085101562000809578190505b620008216200081885620006b7565b830182620007b2565b50505b505050565b600082821c905092915050565b6000620008496000198460080262000829565b1980831691505092915050565b600062000864838362000836565b9150826002028217905092915050565b6200087f8262000604565b67ffffffffffffffff8111156200089b576200089a6200060f565b5b620008a782546200066d565b620008b4828285620007d9565b600060209050601f831160018114620008ec5760008415620008d7578287015190505b620008e3858262000856565b86555062000953565b601f198416620008fc86620006a2565b60005b828110156200092657848901518255600182019150602085019450602081019050620008ff565b8683101562000946578489015162000942601f89168262000836565b8355505b6001600288020188555050505b505050505050565b7f4e487b7100000000000000000000000000000000000000000000000000000000600052601160045260246000fd5b60008160011c9050919050565b6000808291508390505b6001851115620009e957808604811115620009c157620009c06200095b565b5b6001851615620009d15780820291505b8081029050620009e1856200098a565b9450620009a1565b94509492505050565b60008262000a04576001905062000ad7565b8162000a14576000905062000ad7565b816001811462000a2d576002811462000a385762000a6e565b600191505062000ad7565b60ff84111562000a4d5762000a4c6200095b565b5b8360020a91508482111562000a675762000a666200095b565b5b5062000ad7565b5060208310610133831016604e8410600b841016171562000aa85782820a90508381111562000aa25762000aa16200095b565b5b62000ad7565b62000ab7848484600162000997565b9250905081840481111562000ad15762000ad06200095b565b5b81810290505b9392505050565b600060ff82169050919050565b600062000af88262000597565b915062000b058362000ade565b925062000b347fffffffffffffffffffffffffffffffffffffffffffffffffffffffffffffffff8484620009f2565b905092915050565b600062000b498262000597565b915062000b568362000597565b925082820262000b668162000597565b9150828204841483151762000b805762000b7f6200095b565b5b5092915050565b600073ffffffffffffffffffffffffffffffffffffffff82169050919050565b600062000bb48262000b87565b9050919050565b62000bc68162000ba7565b82525050565b600060208201905062000be3600083018462000bbb565b92915050565b600062000bf68262000597565b915062000c038362000597565b925082820190508082111562000c1e5762000c1d6200095b565b5b92915050565b62000c2f8162000597565b82525050565b600060608201905062000c4c600083018662000bbb565b62000c5b602083018562000c24565b62000c6a604083018462000c24565b949350505050565b600060208201905062000c89600083018462000c24565b92915050565b6116ed8062000c9f6000396000f3fe608060405234801561001057600080fd5b50600436106101165760003560e01c806340c10f19116100a2578063a217fddf11610071578063a217fddf14610307578063a9059cbb14610325578063d539139314610355578063d547741f14610373578063dd62ed3e1461038f57610116565b806340c10f191461026d57806370a082311461028957806391d14854146102b957806395d89b41146102e957610116565b806323b872dd116100e957806323b872dd146101b7578063248a9ca3146101e75780632f2ff15d14610217578063313ce5671461023357806336568abe1461025157610116565b806301ffc9a71461011b57806306fdde031461014b578063095ea7b31461016957806318160ddd14610199575b600080fd5b61013560048036038101906101309190611193565b6103bf565b60405161014291906111db565b60405180910390f35b610153610439565b6040516101609190611286565b60405180910390f35b610183600480360381019061017e919061133c565b6104cb565b60405161019091906111db565b60405180910390f35b6101a16104ee565b6040516101ae919061138b565b60405180910390f35b6101d160048036038101906101cc91906113a6565b6104f8565b6040516101de91906111db565b60405180910390f35b61020160048036038101906101fc919061142f565b610527565b60405161020e919061146b565b60405180910390f35b610231600480360381019061022c9190611486565b610547565b005b61023b610569565b60405161024891906114e2565b60405180910390f35b61026b60048036038101906102669190611486565b610572565b005b6102876004803603810190610282919061133c565b6105ed565b005b6102a3600480360381019061029e91906114fd565b610626565b6040516102b0919061138b565b60405180910390f35b6102d360048036038101906102ce9190611486565b61066e565b6040516102e091906111db565b60405180910390f35b6102f16106d9565b6040516102fe9190611286565b60405180910390f35b61030f61076b565b60405161031c919061146b565b60405180910390f35b61033f600480360381019061033a919061133c565b610772565b60405161034c91906111db565b60405180910390f35b61035d610795565b60405161036a919061146b565b60405180910390f35b61038d60048036038101906103889190611486565b6107b9565b005b6103a960048036038101906103a4919061152a565b6107db565b6040516103b6919061138b565b60405180910390f35b60007f7965db0b000000000000000000000000000000000000000000000000000000007bffffffffffffffffffffffffffffffffffffffffffffffffffffffff1916827bffffffffffffffffffffffffffffffffffffffffffffffffffffffff19161480610432575061043182610862565b5b9050919050565b60606003805461044890611599565b80601f016020809104026020016040519081016040528092919081815260200182805461047490611599565b80156104c15780601f10610496576101008083540402835291602001916104c1565b820191906000526020600020905b8154815290600101906020018083116104a457829003601f168201915b5050505050905090565b6000806104d66108cc565b90506104e38185856108d4565b600191505092915050565b6000600254905090565b6000806105036108cc565b90506105108582856108e6565b61051b85858561097a565b60019150509392505050565b600060056000838152602001908152602001600020600101549050919050565b61055082610527565b61055981610a6e565b6105638383610a82565b50505050565b60006012905090565b61057a6108cc565b73ffffffffffffffffffffffffffffffffffffffff168173ffffffffffffffffffffffffffffffffffffffff16146105de576040517f6697b23200000000000000000000000000000000000000000000000000000000815260040160405180910390fd5b6105e88282610b74565b505050565b7f9f2df0fed2c77648de5860a4cc508cd0818c85b8b8a1ab4ceeef8d981c8956a661061781610a6e565b6106218383610c67565b505050565b60008060008373ffffffffffffffffffffffffffffffffffffffff1673ffffffffffffffffffffffffffffffffffffffff168152602001908152602001600020549050919050565b60006005600084815260200190815260200160002060000160008373ffffffffffffffffffffffffffffffffffffffff1673ffffffffffffffffffffffffffffffffffffffff16815260200190815260200160002060009054906101000a900460ff16905092915050565b6060600480546106e890611599565b80601f016020809104026020016040519081016040528092919081815260200182805461071490611599565b80156107615780601f1061073657610100808354040283529160200191610761565b820191906000526020600020905b81548152906001019060200180831161074457829003601f168201915b5050505050905090565b6000801b81565b60008061077d6108cc565b905061078a81858561097a565b600191505092915050565b7f9f2df0fed2c77648de5860a4cc508cd0818c85b8b8a1ab4ceeef8d981c8956a681565b6107c282610527565b6107cb81610a6e565b6107d58383610b74565b50505050565b6000600160008473ffffffffffffffffffffffffffffffffffffffff1673ffffffffffffffffffffffffffffffffffffffff16815260200190815260200160002060008373ffffffffffffffffffffffffffffffffffffffff1673ffffffffffffffffffffffffffffffffffffffff16815260200190815260200160002054905092915050565b60007f01ffc9a7000000000000000000000000000000000000000000000000000000007bffffffffffffffffffffffffffffffffffffffffffffffffffffffff1916827bffffffffffffffffffffffffffffffffffffffffffffffffffffffff1916149050919050565b600033905090565b6108e18383836001610ce9565b505050565b60006108f284846107db565b90507fffffffffffffffffffffffffffffffffffffffffffffffffffffffffffffffff81146109745781811015610964578281836040517ffb8f41b200000000000000000000000000000000000000000000000000000000815260040161095b939291906115d9565b60405180910390fd5b61097384848484036000610ce9565b5b50505050565b600073ffffffffffffffffffffffffffffffffffffffff168373ffffffffffffffffffffffffffffffffffffffff16036109ec5760006040517f96c6fd1e0000000000000000000000000000000000000000000000000000000081526004016109e39190611610565b60405180910390fd5b600073ffffffffffffffffffffffffffffffffffffffff168273ffffffffffffffffffffffffffffffffffffffff1603610a5e5760006040517fec442f05000000000000000000000000000000000000000000000000000000008152600401610a559190611610565b60405180910390fd5b610a69838383610ec0565b505050565b610a7f81610a7a6108cc565b6110e5565b50565b6000610a8e838361066e565b610b695760016005600085815260200190815260200160002060000160008473ffffffffffffffffffffffffffffffffffffffff1673ffffffffffffffffffffffffffffffffffffffff16815260200190815260200160002060006101000a81548160ff021916908315150217905550610b066108cc565b73ffffffffffffffffffffffffffffffffffffffff168273ffffffffffffffffffffffffffffffffffffffff16847f2f8788117e7eff1d82e926ec794901d17c78024a50270940304540a733656f0d60405160405180910390a460019050610b6e565b600090505b92915050565b6000610b80838361066e565b15610c5c5760006005600085815260200190815260200160002060000160008473ffffffffffffffffffffffffffffffffffffffff1673ffffffffffffffffffffffffffffffffffffffff16815260200190815260200160002060006101000a81548160ff021916908315150217905550610bf96108cc565b73ffffffffffffffffffffffffffffffffffffffff168273ffffffffffffffffffffffffffffffffffffffff16847ff6391f5c32d9c69d2a47ea670b442974b53935d1edc7fd64eb21e047a839171b60405160405180910390a460019050610c61565b600090505b92915050565b600073ffffffffffffffffffffffffffffffffffffffff168273ffffffffffffffffffffffffffffffffffffffff1603610cd95760006040517fec442f05000000000000000000000000000000000000000000000000000000008152600401610cd09190611610565b60405180910390fd5b610ce560008383610ec0565b5050565b600073ffffffffffffffffffffffffffffffffffffffff168473ffffffffffffffffffffffffffffffffffffffff1603610d5b5760006040517fe602df05000000000000000000000000000000000000000000000000000000008152600401610d529190611610565b60405180910390fd5b600073ffffffffffffffffffffffffffffffffffffffff168373ffffffffffffffffffffffffffffffffffffffff1603610dcd5760006040517f94280d62000000000000000000000000000000000000000000000000000000008152600401610dc49190611610565b60405180910390fd5b81600160008673ffffffffffffffffffffffffffffffffffffffff1673ffffffffffffffffffffffffffffffffffffffff16815260200190815260200160002060008573ffffffffffffffffffffffffffffffffffffffff1673ffffffffffffffffffffffffffffffffffffffff168152602001908152602001600020819055508015610eba578273ffffffffffffffffffffffffffffffffffffffff168473ffffffffffffffffffffffffffffffffffffffff167f8c5be1e5ebec7d5bd14f71427d1e84f3dd0314c0f7b2291e5b200ac8c7c3b92584604051610eb1919061138b565b60405180910390a35b50505050565b600073ffffffffffffffffffffffffffffffffffffffff168373ffffffffffffffffffffffffffffffffffffffff1603610f12578060026000828254610f06919061165a565b92505081905550610fe5565b60008060008573ffffffffffffffffffffffffffffffffffffffff1673ffffffffffffffffffffffffffffffffffffffff16815260200190815260200160002054905081811015610f9e578381836040517fe450d38c000000000000000000000000000000000000000000000000000000008152600401610f95939291906115d9565b60405180910390fd5b8181036000808673ffffffffffffffffffffffffffffffffffffffff1673ffffffffffffffffffffffffffffffffffffffff16815260200190815260200160002081905550505b600073ffffffffffffffffffffffffffffffffffffffff168273ffffffffffffffffffffffffffffffffffffffff160361102e578060026000828254039250508190555061107b565b806000808473ffffffffffffffffffffffffffffffffffffffff1673ffffffffffffffffffffffffffffffffffffffff168152602001908152602001600020600082825401925050819055505b8173ffffffffffffffffffffffffffffffffffffffff168373ffffffffffffffffffffffffffffffffffffffff167fddf252ad1be2c89b69c2b068fc378daa952ba7f163c4a11628f55a4df523b3ef836040516110d8919061138b565b60405180910390a3505050565b6110ef828261066e565b6111325780826040517fe2517d3f00000000000000000000000000000000000000000000000000000000815260040161112992919061168e565b60405180910390fd5b5050565b600080fd5b60007fffffffff0000000000000000000000000000000000000000000000000000000082169050919050565b6111708161113b565b811461117b57600080fd5b50565b60008135905061118d81611167565b92915050565b6000602082840312156111a9576111a8611136565b5b60006111b78482850161117e565b91505092915050565b60008115159050919050565b6111d5816111c0565b82525050565b60006020820190506111f060008301846111cc565b92915050565b600081519050919050565b600082825260208201905092915050565b60005b83811015611230578082015181840152602081019050611215565b60008484015250505050565b6000601f19601f8301169050919050565b6000611258826111f6565b6112628185611201565b9350611272818560208601611212565b61127b8161123c565b840191505092915050565b600060208201905081810360008301526112a0818461124d565b905092915050565b600073ffffffffffffffffffffffffffffffffffffffff82169050919050565b60006112d3826112a8565b9050919050565b6112e3816112c8565b81146112ee57600080fd5b50565b600081359050611300816112da565b92915050565b6000819050919050565b61131981611306565b811461132457600080fd5b50565b60008135905061133681611310565b92915050565b6000806040838503121561135357611352611136565b5b6000611361858286016112f1565b925050602061137285828601611327565b9150509250929050565b61138581611306565b82525050565b60006020820190506113a0600083018461137c565b92915050565b6000806000606084860312156113bf576113be611136565b5b60006113cd868287016112f1565b93505060206113de868287016112f1565b92505060406113ef86828701611327565b9150509250925092565b6000819050919050565b61140c816113f9565b811461141757600080fd5b50565b60008135905061142981611403565b92915050565b60006020828403121561144557611444611136565b5b60006114538482850161141a565b91505092915050565b611465816113f9565b82525050565b6000602082019050611480600083018461145c565b92915050565b6000806040838503121561149d5761149c611136565b5b60006114ab8582860161141a565b92505060206114bc858286016112f1565b9150509250929050565b600060ff82169050919050565b6114dc816114c6565b82525050565b60006020820190506114f760008301846114d3565b92915050565b60006020828403121561151357611512611136565b5b6000611521848285016112f1565b91505092915050565b6000806040838503121561154157611540611136565b5b600061154f858286016112f1565b9250506020611560858286016112f1565b9150509250929050565b7f4e487b7100000000000000000000000000000000000000000000000000000000600052602260045260246000fd5b600060028204905060018216806115b157607f821691505b6020821081036115c4576115c361156a565b5b50919050565b6115d3816112c8565b82525050565b60006060820190506115ee60008301866115ca565b6115fb602083018561137c565b611608604083018461137c565b949350505050565b600060208201905061162560008301846115ca565b92915050565b7f4e487b7100000000000000000000000000000000000000000000000000000000600052601160045260246000fd5b600061166582611306565b915061167083611306565b92508282019050808211156116885761168761162b565b5b92915050565b60006040820190506116a360008301856115ca565b6116b0602083018461145c565b939250505056fea2646970667358221220dd9c2444c56f051cab8f85409fc217e0e6ada37593118a0cfc80d548c08168d964736f6c63430008180033",
  "linkReferences": {},
  "deployedLinkReferences": {}
}